{
  "_format": "hh-sol-artifact-1",
  "contractName": "CertificateValidation",
  "sourceName": "contracts/CertificateValidation.sol",
  "abi": [
    {
      "inputs": [],
      "stateMutability": "nonpayable",
      "type": "constructor"
    },
    {
      "anonymous": false,
      "inputs": [
        {
          "indexed": true,
          "internalType": "bytes32",
          "name": "certificateId",
          "type": "bytes32"
        },
        {
          "indexed": false,
          "internalType": "string",
          "name": "studentName",
          "type": "string"
        },
        {
          "indexed": false,
          "internalType": "string",
          "name": "courseName",
          "type": "string"
        },
        {
          "indexed": false,
          "internalType": "address",
          "name": "issuer",
          "type": "address"
        }
      ],
      "name": "CertificateIssued",
      "type": "event"
    },
    {
      "anonymous": false,
      "inputs": [
        {
          "indexed": true,
          "internalType": "bytes32",
          "name": "certificateId",
          "type": "bytes32"
        }
      ],
      "name": "CertificateRevoked",
      "type": "event"
    },
    {
      "inputs": [
        {
          "internalType": "bytes32",
          "name": "",
          "type": "bytes32"
        }
      ],
      "name": "certificates",
      "outputs": [
        {
          "internalType": "string",
          "name": "studentName",
          "type": "string"
        },
        {
          "internalType": "string",
          "name": "courseName",
          "type": "string"
        },
        {
          "internalType": "uint256",
          "name": "issueDate",
          "type": "uint256"
        },
        {
          "internalType": "string",
          "name": "ipfsHash",
          "type": "string"
        },
        {
          "internalType": "bool",
          "name": "isValid",
          "type": "bool"
        },
        {
          "internalType": "address",
          "name": "issuer",
          "type": "address"
        }
      ],
      "stateMutability": "view",
      "type": "function"
    },
    {
      "inputs": [
        {
          "internalType": "string",
          "name": "_studentName",
          "type": "string"
        },
        {
          "internalType": "string",
          "name": "_courseName",
          "type": "string"
        },
        {
          "internalType": "string",
          "name": "_ipfsHash",
          "type": "string"
        }
      ],
      "name": "issueCertificate",
      "outputs": [
        {
          "internalType": "bytes32",
          "name": "",
          "type": "bytes32"
        }
      ],
      "stateMutability": "nonpayable",
      "type": "function"
    },
    {
      "inputs": [],
      "name": "owner",
      "outputs": [
        {
          "internalType": "address",
          "name": "",
          "type": "address"
        }
      ],
      "stateMutability": "view",
      "type": "function"
    },
    {
      "inputs": [
        {
          "internalType": "bytes32",
          "name": "_certificateId",
          "type": "bytes32"
        }
      ],
      "name": "revokeCertificate",
      "outputs": [],
      "stateMutability": "nonpayable",
      "type": "function"
    },
    {
      "inputs": [
        {
          "internalType": "bytes32",
          "name": "_certificateId",
          "type": "bytes32"
        }
      ],
      "name": "verifyCertificate",
      "outputs": [
        {
          "internalType": "bool",
          "name": "isValid",
          "type": "bool"
        },
        {
          "internalType": "string",
          "name": "studentName",
          "type": "string"
        },
        {
          "internalType": "string",
          "name": "courseName",
          "type": "string"
        },
        {
          "internalType": "uint256",
          "name": "issueDate",
          "type": "uint256"
        },
        {
          "internalType": "string",
          "name": "ipfsHash",
          "type": "string"
        },
        {
          "internalType": "address",
          "name": "issuer",
          "type": "address"
        }
      ],
      "stateMutability": "view",
      "type": "function"
    }
  ],
  "bytecode": "0x608060405234801561001057600080fd5b50336000806101000a81548173ffffffffffffffffffffffffffffffffffffffff021916908373ffffffffffffffffffffffffffffffffffffffff160217905550611304806100606000396000f3fe608060405234801561001057600080fd5b50600436106100575760003560e01c8063742f06881461005c578063850c1768146100915780638da5cb5b146100c6578063beec1caa146100e4578063c6cbc52a14610114575b600080fd5b61007660048036038101906100719190610976565b610130565b60405161008896959493929190610aa8565b60405180910390f35b6100ab60048036038101906100a69190610976565b610331565b6040516100bd96959493929190610b1e565b60405180910390f35b6100ce6105c2565b6040516100db9190610b94565b60405180910390f35b6100fe60048036038101906100f99190610ce4565b6105e6565b60405161010b9190610d9a565b60405180910390f35b61012e60048036038101906101299190610976565b610770565b005b600160205280600052604060002060009150905080600001805461015390610de4565b80601f016020809104026020016040519081016040528092919081815260200182805461017f90610de4565b80156101cc5780601f106101a1576101008083540402835291602001916101cc565b820191906000526020600020905b8154815290600101906020018083116101af57829003601f168201915b5050505050908060010180546101e190610de4565b80601f016020809104026020016040519081016040528092919081815260200182805461020d90610de4565b801561025a5780601f1061022f5761010080835404028352916020019161025a565b820191906000526020600020905b81548152906001019060200180831161023d57829003601f168201915b50505050509080600201549080600301805461027590610de4565b80601f01602080910402602001604051908101604052809291908181526020018280546102a190610de4565b80156102ee5780601f106102c3576101008083540402835291602001916102ee565b820191906000526020600020905b8154815290600101906020018083116102d157829003601f168201915b5050505050908060040160009054906101000a900460ff16908060040160019054906101000a900473ffffffffffffffffffffffffffffffffffffffff16905086565b600060608060006060600080600160008981526020019081526020016000206040518060c001604052908160008201805461036b90610de4565b80601f016020809104026020016040519081016040528092919081815260200182805461039790610de4565b80156103e45780601f106103b9576101008083540402835291602001916103e4565b820191906000526020600020905b8154815290600101906020018083116103c757829003601f168201915b505050505081526020016001820180546103fd90610de4565b80601f016020809104026020016040519081016040528092919081815260200182805461042990610de4565b80156104765780601f1061044b57610100808354040283529160200191610476565b820191906000526020600020905b81548152906001019060200180831161045957829003601f168201915b505050505081526020016002820154815260200160038201805461049990610de4565b80601f01602080910402602001604051908101604052809291908181526020018280546104c590610de4565b80156105125780601f106104e757610100808354040283529160200191610512565b820191906000526020600020905b8154815290600101906020018083116104f557829003601f168201915b505050505081526020016004820160009054906101000a900460ff161515151581526020016004820160019054906101000a900473ffffffffffffffffffffffffffffffffffffffff1673ffffffffffffffffffffffffffffffffffffffff1673ffffffffffffffffffffffffffffffffffffffff16815250509050806080015181600001518260200151836040015184606001518560a001519650965096509650965096505091939550919395565b60008054906101000a900473ffffffffffffffffffffffffffffffffffffffff1681565b6000808484844233604051602001610602959493929190610eba565b6040516020818303038152906040528051906020012090506040518060c001604052808681526020018581526020014281526020018481526020016001151581526020013373ffffffffffffffffffffffffffffffffffffffff1681525060016000838152602001908152602001600020600082015181600001908161068891906110b9565b50602082015181600101908161069e91906110b9565b506040820151816002015560608201518160030190816106be91906110b9565b5060808201518160040160006101000a81548160ff02191690831515021790555060a08201518160040160016101000a81548173ffffffffffffffffffffffffffffffffffffffff021916908373ffffffffffffffffffffffffffffffffffffffff160217905550905050807f5c0348c216b5b88507abf395e257e83bd172cf494232657701d427410d12a8e286863360405161075d9392919061118b565b60405180910390a2809150509392505050565b3373ffffffffffffffffffffffffffffffffffffffff166001600083815260200190815260200160002060040160019054906101000a900473ffffffffffffffffffffffffffffffffffffffff1673ffffffffffffffffffffffffffffffffffffffff16148061082b575060008054906101000a900473ffffffffffffffffffffffffffffffffffffffff1673ffffffffffffffffffffffffffffffffffffffff163373ffffffffffffffffffffffffffffffffffffffff16145b61086a576040517f08c379a00000000000000000000000000000000000000000000000000000000081526004016108619061121c565b60405180910390fd5b6001600082815260200190815260200160002060040160009054906101000a900460ff166108cd576040517f08c379a00000000000000000000000000000000000000000000000000000000081526004016108c4906112ae565b60405180910390fd5b60006001600083815260200190815260200160002060040160006101000a81548160ff021916908315150217905550807f44d80a438cb4fa3b5aedbe551ce3d9382e37f446917b783e1dee70a03b4180e360405160405180910390a250565b6000604051905090565b600080fd5b600080fd5b6000819050919050565b61095381610940565b811461095e57600080fd5b50565b6000813590506109708161094a565b92915050565b60006020828403121561098c5761098b610936565b5b600061099a84828501610961565b91505092915050565b600081519050919050565b600082825260208201905092915050565b60005b838110156109dd5780820151818401526020810190506109c2565b60008484015250505050565b6000601f19601f8301169050919050565b6000610a05826109a3565b610a0f81856109ae565b9350610a1f8185602086016109bf565b610a28816109e9565b840191505092915050565b6000819050919050565b610a4681610a33565b82525050565b60008115159050919050565b610a6181610a4c565b82525050565b600073ffffffffffffffffffffffffffffffffffffffff82169050919050565b6000610a9282610a67565b9050919050565b610aa281610a87565b82525050565b600060c0820190508181036000830152610ac281896109fa565b90508181036020830152610ad681886109fa565b9050610ae56040830187610a3d565b8181036060830152610af781866109fa565b9050610b066080830185610a58565b610b1360a0830184610a99565b979650505050505050565b600060c082019050610b336000830189610a58565b8181036020830152610b4581886109fa565b90508181036040830152610b5981876109fa565b9050610b686060830186610a3d565b8181036080830152610b7a81856109fa565b9050610b8960a0830184610a99565b979650505050505050565b6000602082019050610ba96000830184610a99565b92915050565b600080fd5b600080fd5b7f4e487b7100000000000000000000000000000000000000000000000000000000600052604160045260246000fd5b610bf1826109e9565b810181811067ffffffffffffffff82111715610c1057610c0f610bb9565b5b80604052505050565b6000610c2361092c565b9050610c2f8282610be8565b919050565b600067ffffffffffffffff821115610c4f57610c4e610bb9565b5b610c58826109e9565b9050602081019050919050565b82818337600083830152505050565b6000610c87610c8284610c34565b610c19565b905082815260208101848484011115610ca357610ca2610bb4565b5b610cae848285610c65565b509392505050565b600082601f830112610ccb57610cca610baf565b5b8135610cdb848260208601610c74565b91505092915050565b600080600060608486031215610cfd57610cfc610936565b5b600084013567ffffffffffffffff811115610d1b57610d1a61093b565b5b610d2786828701610cb6565b935050602084013567ffffffffffffffff811115610d4857610d4761093b565b5b610d5486828701610cb6565b925050604084013567ffffffffffffffff811115610d7557610d7461093b565b5b610d8186828701610cb6565b9150509250925092565b610d9481610940565b82525050565b6000602082019050610daf6000830184610d8b565b92915050565b7f4e487b7100000000000000000000000000000000000000000000000000000000600052602260045260246000fd5b60006002820490506001821680610dfc57607f821691505b602082108103610e0f57610e0e610db5565b5b50919050565b600081905092915050565b6000610e2b826109a3565b610e358185610e15565b9350610e458185602086016109bf565b80840191505092915050565b6000819050919050565b610e6c610e6782610a33565b610e51565b82525050565b60008160601b9050919050565b6000610e8a82610e72565b9050919050565b6000610e9c82610e7f565b9050919050565b610eb4610eaf82610a87565b610e91565b82525050565b6000610ec68288610e20565b9150610ed28287610e20565b9150610ede8286610e20565b9150610eea8285610e5b565b602082019150610efa8284610ea3565b6014820191508190509695505050505050565b60008190508160005260206000209050919050565b60006020601f8301049050919050565b600082821b905092915050565b600060088302610f6f7fffffffffffffffffffffffffffffffffffffffffffffffffffffffffffffffff82610f32565b610f798683610f32565b95508019841693508086168417925050509392505050565b6000819050919050565b6000610fb6610fb1610fac84610a33565b610f91565b610a33565b9050919050565b6000819050919050565b610fd083610f9b565b610fe4610fdc82610fbd565b848454610f3f565b825550505050565b600090565b610ff9610fec565b611004818484610fc7565b505050565b5b818110156110285761101d600082610ff1565b60018101905061100a565b5050565b601f82111561106d5761103e81610f0d565b61104784610f22565b81016020851015611056578190505b61106a61106285610f22565b830182611009565b50505b505050565b600082821c905092915050565b600061109060001984600802611072565b1980831691505092915050565b60006110a9838361107f565b9150826002028217905092915050565b6110c2826109a3565b67ffffffffffffffff8111156110db576110da610bb9565b5b6110e58254610de4565b6110f082828561102c565b600060209050601f8311600181146111235760008415611111578287015190505b61111b858261109d565b865550611183565b601f19841661113186610f0d565b60005b8281101561115957848901518255600182019150602085019450602081019050611134565b868310156111765784890151611172601f89168261107f565b8355505b6001600288020188555050505b505050505050565b600060608201905081810360008301526111a581866109fa565b905081810360208301526111b981856109fa565b90506111c86040830184610a99565b949350505050565b7f4f6e6c7920697373756572206f72206f776e65722063616e207265766f6b6500600082015250565b6000611206601f836109ae565b9150611211826111d0565b602082019050919050565b60006020820190508181036000830152611235816111f9565b9050919050565b7f436572746966696361746520697320616c7265616479207265766f6b6564206f60008201527f7220646f6573206e6f7420657869737400000000000000000000000000000000602082015250565b60006112986030836109ae565b91506112a38261123c565b604082019050919050565b600060208201905081810360008301526112c78161128b565b905091905056fea2646970667358221220c4883bd88ff06a66fbaf122fd7f238dd297086552d9b99a2fd4e4a438c718d2964736f6c63430008130033",
  "linkReferences": {},
  "deployedLinkReferences": {}
}